{
  "contractName": "BugBounty",
  "abi": [
    {
      "constant": true,
      "inputs": [],
      "name": "baseBounty",
      "outputs": [
        {
          "name": "",
          "type": "uint256"
        }
      ],
      "payable": false,
      "stateMutability": "view",
      "type": "function"
    },
    {
      "constant": true,
      "inputs": [],
      "name": "scope",
      "outputs": [
        {
          "name": "",
          "type": "string"
        }
      ],
      "payable": false,
      "stateMutability": "view",
      "type": "function"
    },
    {
      "constant": true,
      "inputs": [],
      "name": "submissionCount",
      "outputs": [
        {
          "name": "",
          "type": "uint256"
        }
      ],
      "payable": false,
      "stateMutability": "view",
      "type": "function"
    },
    {
      "constant": true,
      "inputs": [],
      "name": "notice",
      "outputs": [
        {
          "name": "",
          "type": "string"
        }
      ],
      "payable": false,
      "stateMutability": "view",
      "type": "function"
    },
    {
      "inputs": [
        {
          "name": "_baseBounty",
          "type": "uint256"
        },
        {
          "name": "_scope",
          "type": "string"
        },
        {
          "name": "_notice",
          "type": "string"
        },
        {
          "name": "_notice",
          "type": "string"
        }
      ],
      "payable": false,
      "stateMutability": "nonpayable",
      "type": "constructor"
    },
    {
      "payable": true,
      "stateMutability": "payable",
      "type": "fallback"
    },
    {
      "anonymous": false,
      "inputs": [
        {
          "indexed": true,
          "name": "sender",
          "type": "address"
        },
        {
          "indexed": false,
          "name": "value",
          "type": "uint256"
        }
      ],
      "name": "Deposit",
      "type": "event"
    },
    {
      "anonymous": false,
      "inputs": [
        {
          "indexed": false,
          "name": "baseBounty",
          "type": "uint256"
        },
        {
          "indexed": false,
          "name": "scope",
          "type": "string"
        },
        {
          "indexed": false,
          "name": "notice",
          "type": "string"
        }
      ],
      "name": "ProgramChanged",
      "type": "event"
    },
    {
      "anonymous": false,
      "inputs": [
        {
          "indexed": true,
          "name": "submiter",
          "type": "address"
        },
        {
          "indexed": false,
          "name": "name",
          "type": "string"
        },
        {
          "indexed": true,
          "name": "submissionId",
          "type": "uint256"
        }
      ],
      "name": "NewSubmission",
      "type": "event"
    },
    {
      "anonymous": false,
      "inputs": [
        {
          "indexed": true,
          "name": "hacker",
          "type": "address"
        },
        {
          "indexed": false,
          "name": "name",
          "type": "string"
        },
        {
          "indexed": false,
          "name": "bounty",
          "type": "uint256"
        },
        {
          "indexed": false,
          "name": "comment",
          "type": "string"
        }
      ],
      "name": "RewardBounty",
      "type": "event"
    },
    {
      "constant": false,
      "inputs": [
        {
          "name": "_baseBounty",
          "type": "uint256"
        },
        {
          "name": "_scope",
          "type": "string"
        },
        {
          "name": "_notice",
          "type": "string"
        }
      ],
      "name": "changeProgram",
      "outputs": [],
      "payable": false,
      "stateMutability": "nonpayable",
      "type": "function"
    },
    {
      "constant": false,
      "inputs": [
        {
          "name": "_name",
          "type": "string"
        },
        {
          "name": "_severity",
          "type": "uint256"
        }
      ],
      "name": "submitBug",
      "outputs": [
        {
          "name": "submissionId",
          "type": "uint256"
        }
      ],
      "payable": false,
      "stateMutability": "nonpayable",
      "type": "function"
    },
    {
      "constant": false,
      "inputs": [
        {
          "name": "_action",
          "type": "uint256"
        },
        {
          "name": "_bounty",
          "type": "uint256"
        },
        {
          "name": "_comment",
          "type": "string"
        }
      ],
      "name": "processSubmission",
      "outputs": [],
      "payable": false,
      "stateMutability": "nonpayable",
      "type": "function"
    }
  ],
  "bytecode": "0x608060405260046000556005600155600660025560076003553480156200002557600080fd5b506040516200124b3803806200124b833981018060405260608110156200004b57600080fd5b810190808051906020019092919080516401000000008111156200006e57600080fd5b828101905060208101848111156200008557600080fd5b8151856001820283011164010000000082111715620000a357600080fd5b50509291906020018051640100000000811115620000c057600080fd5b82810190506020810184811115620000d757600080fd5b8151856001820283011164010000000082111715620000f557600080fd5b5050929190505050826000811115156200010e57600080fd5b33600460006101000a81548173ffffffffffffffffffffffffffffffffffffffff021916908373ffffffffffffffffffffffffffffffffffffffff1602179055508360058190555082600690805190602001906200016e929190620001b5565b50816007908051906020019062000187929190620001b5565b5060006008819055506000600e60006101000a81548160ff0219169083151502179055505050505062000264565b828054600181600116156101000203166002900490600052602060002090601f016020900481019282601f10620001f857805160ff191683800117855562000229565b8280016001018555821562000229579182015b82811115620002285782518255916020019190600101906200020b565b5b5090506200023891906200023c565b5090565b6200026191905b808211156200025d57600081600090555060010162000243565b5090565b90565b610fd780620002746000396000f3fe608060405260043610610083576000357c0100000000000000000000000000000000000000000000000000000000900463ffffffff168063370d8772146100dd578063505b38a51461010857806369aa77c8146101ee5780636e62d0a8146102ca5780636ec02be91461035a57806399748da3146103855780639c94e6c6146104ee575b60003411156100db573373ffffffffffffffffffffffffffffffffffffffff167fe1fffcc4923d04b559f4d29a8bfc6cda04eb5b0d3c460751c2402c5c5cc9109c346040518082815260200191505060405180910390a25b005b3480156100e957600080fd5b506100f261057e565b6040518082815260200191505060405180910390f35b34801561011457600080fd5b506101d86004803603604081101561012b57600080fd5b810190808035906020019064010000000081111561014857600080fd5b82018360208201111561015a57600080fd5b8035906020019184600183028401116401000000008311171561017c57600080fd5b91908080601f016020809104026020016040519081016040528093929190818152602001838380828437600081840152601f19601f82011690508083019250505050505050919291929080359060200190929190505050610584565b6040518082815260200191505060405180910390f35b3480156101fa57600080fd5b506102c86004803603606081101561021157600080fd5b8101908080359060200190929190803590602001909291908035906020019064010000000081111561024257600080fd5b82018360208201111561025457600080fd5b8035906020019184600183028401116401000000008311171561027657600080fd5b91908080601f016020809104026020016040519081016040528093929190818152602001838380828437600081840152601f19601f8201169050808301925050505050505091929192905050506107a8565b005b3480156102d657600080fd5b506102df6109d9565b6040518080602001828103825283818151815260200191508051906020019080838360005b8381101561031f578082015181840152602081019050610304565b50505050905090810190601f16801561034c5780820380516001836020036101000a031916815260200191505b509250505060405180910390f35b34801561036657600080fd5b5061036f610a77565b6040518082815260200191505060405180910390f35b34801561039157600080fd5b506104ec600480360360608110156103a857600080fd5b8101908080359060200190929190803590602001906401000000008111156103cf57600080fd5b8201836020820111156103e157600080fd5b8035906020019184600183028401116401000000008311171561040357600080fd5b91908080601f016020809104026020016040519081016040528093929190818152602001838380828437600081840152601f19601f8201169050808301925050505050505091929192908035906020019064010000000081111561046657600080fd5b82018360208201111561047857600080fd5b8035906020019184600183028401116401000000008311171561049a57600080fd5b91908080601f016020809104026020016040519081016040528093929190818152602001838380828437600081840152601f19601f820116905080830192505050505050509192919290505050610a7d565b005b3480156104fa57600080fd5b50610503610c59565b6040518080602001828103825283818151815260200191508051906020019080838360005b83811015610543578082015181840152602081019050610528565b50505050905090810190601f1680156105705780820380516001836020036101000a031916815260200191505b509250505060405180910390f35b60055481565b6000801515600e60009054906101000a900460ff1615151415156105a757600080fd5b600854905060a0604051908101604052803373ffffffffffffffffffffffffffffffffffffffff16815260200184815260200183815260200160008152602001600854815250600960008201518160000160006101000a81548173ffffffffffffffffffffffffffffffffffffffff021916908373ffffffffffffffffffffffffffffffffffffffff1602179055506020820151816001019080519060200190610652929190610e86565b506040820151816002015560608201518160030155608082015181600401559050506001600e60006101000a81548160ff0219169083151502179055506001600860008282540192505081905550600960040154600960000160009054906101000a900473ffffffffffffffffffffffffffffffffffffffff1673ffffffffffffffffffffffffffffffffffffffff167fba0db92ac5db9e0468a67012861629e765834bdf671414c7d02dbe53c0603f7d600960010160405180806020018281038252838181546001816001161561010002031660029004815260200191508054600181600116156101000203166002900480156107915780601f1061076657610100808354040283529160200191610791565b820191906000526020600020905b81548152906001019060200180831161077457829003601f168201915b50509250505060405180910390a380905092915050565b33600460009054906101000a900473ffffffffffffffffffffffffffffffffffffffff1673ffffffffffffffffffffffffffffffffffffffff168173ffffffffffffffffffffffffffffffffffffffff1614151561080557600080fd5b60011515600e60009054906101000a900460ff16151514151561082757600080fd5b60018414156109d35761085f600960000160009054906101000a900473ffffffffffffffffffffffffffffffffffffffff1684610cf7565b600960000160009054906101000a900473ffffffffffffffffffffffffffffffffffffffff1673ffffffffffffffffffffffffffffffffffffffff167f4a67c8fc6836cf5cfdd6db07329f86f51c6d3d64d7ac91f7b5316f393e5c240a60096001016009600301548560405180806020018481526020018060200183810383528681815460018160011615610100020316600290048152602001915080546001816001161561010002031660029004801561095b5780601f106109305761010080835404028352916020019161095b565b820191906000526020600020905b81548152906001019060200180831161093e57829003601f168201915b5050838103825284818151815260200191508051906020019080838360005b8381101561099557808201518184015260208101905061097a565b50505050905090810190601f1680156109c25780820380516001836020036101000a031916815260200191505b509550505050505060405180910390a25b50505050565b60068054600181600116156101000203166002900480601f016020809104026020016040519081016040528092919081815260200182805460018160011615610100020316600290048015610a6f5780601f10610a4457610100808354040283529160200191610a6f565b820191906000526020600020905b815481529060010190602001808311610a5257829003601f168201915b505050505081565b60085481565b60001515600e60009054906101000a900460ff161515141515610a9f57600080fd5b33600460009054906101000a900473ffffffffffffffffffffffffffffffffffffffff1673ffffffffffffffffffffffffffffffffffffffff168173ffffffffffffffffffffffffffffffffffffffff16141515610afc57600080fd5b83600081111515610b0c57600080fd5b846005819055508360069080519060200190610b29929190610f06565b508260079080519060200190610b40929190610f06565b507feef40618f30987a8181f75811d31fc5d1e9788a2f85f1d04e470ef8864f15977858585604051808481526020018060200180602001838103835285818151815260200191508051906020019080838360005b83811015610baf578082015181840152602081019050610b94565b50505050905090810190601f168015610bdc5780820380516001836020036101000a031916815260200191505b50838103825284818151815260200191508051906020019080838360005b83811015610c15578082015181840152602081019050610bfa565b50505050905090810190601f168015610c425780820380516001836020036101000a031916815260200191505b509550505050505060405180910390a15050505050565b60078054600181600116156101000203166002900480601f016020809104026020016040519081016040528092919081815260200182805460018160011615610100020316600290048015610cef5780601f10610cc457610100808354040283529160200191610cef565b820191906000526020600020905b815481529060010190602001808311610cd257829003601f168201915b505050505081565b33600460009054906101000a900473ffffffffffffffffffffffffffffffffffffffff1673ffffffffffffffffffffffffffffffffffffffff168173ffffffffffffffffffffffffffffffffffffffff16141515610d5457600080fd5b60011515600e60009054906101000a900460ff161515141515610d7657600080fd5b81600081111515610d8657600080fd5b826009600301819055506000600e60006101000a81548160ff021916908315150217905550610db58484610dbb565b50505050565b33600460009054906101000a900473ffffffffffffffffffffffffffffffffffffffff1673ffffffffffffffffffffffffffffffffffffffff168173ffffffffffffffffffffffffffffffffffffffff16141515610e1857600080fd5b60011515600e60009054906101000a900460ff161515141515610e3a57600080fd5b8273ffffffffffffffffffffffffffffffffffffffff166108fc839081150290604051600060405180830381858888f19350505050158015610e80573d6000803e3d6000fd5b50505050565b828054600181600116156101000203166002900490600052602060002090601f016020900481019282601f10610ec757805160ff1916838001178555610ef5565b82800160010185558215610ef5579182015b82811115610ef4578251825591602001919060010190610ed9565b5b509050610f029190610f86565b5090565b828054600181600116156101000203166002900490600052602060002090601f016020900481019282601f10610f4757805160ff1916838001178555610f75565b82800160010185558215610f75579182015b82811115610f74578251825591602001919060010190610f59565b5b509050610f829190610f86565b5090565b610fa891905b80821115610fa4576000816000905550600101610f8c565b5090565b9056fea165627a7a7230582078f9a0a7115ce19766710971bc2ec0bd820a63074515cedeb730e65bb043840a0029",
  "source": "\r\npragma solidity ^0.5.0;\r\n\r\n\r\n/// @title BugBounty\r\ncontract BugBounty {\r\n\r\n    /*\r\n     *  Events\r\n     */\r\n    // event Confirmation(address indexed sender, uint indexed transactionId);\r\n    // event Revocation(address indexed sender, uint indexed transactionId);\r\n    // event Submission(uint indexed transactionId);\r\n    // event Execution(uint indexed transactionId);\r\n    // event ExecutionFailure(uint indexed transactionId);\r\n    // event Deposit(address indexed sender, uint value);\r\n    // event OwnerAddition(address indexed owner);\r\n    // event OwnerRemoval(address indexed owner);\r\n    // event RequirementChange(uint required);\r\n\r\n    event Deposit(address indexed sender, uint value);\r\n    event ProgramChanged(uint baseBounty, string scope, string notice);\r\n    event NewSubmission(address indexed submiter, string name, uint indexed submissionId);\r\n    event RewardBounty(address indexed hacker, string name, uint bounty, string comment);\r\n\r\n\r\n    /*\r\n     *  Constants\r\n     */\r\n\r\n    uint constant ACCEPT = 1;\r\n    uint constant REJECT = 2;\r\n    uint constant NEED_EXPERT = 3;\r\n\r\n    uint LOW = 4;\r\n    uint MEDIUM = 5;\r\n    uint HIGH = 6;\r\n    uint CRITICAL = 7;\r\n\r\n    /*\r\n     *  Storage\r\n     */\r\n    // mapping (uint => Transaction) public transactions;\r\n    // mapping (uint => mapping (address => bool)) public confirmations;\r\n    // mapping (address => bool) public isOwner;\r\n    // address[] public owners;\r\n    // uint public required;\r\n    // uint public transactionCount;\r\n    // bool public pham;\r\n    // address public excute;\r\n    // uint public duypv;\r\n    // uint public k;\r\n\r\n    address owner;\r\n    uint public baseBounty;\r\n    string public scope;\r\n    string public notice;\r\n    uint public submissionCount;\r\n\r\n    Submission currentSubmission;\r\n    bool isProcessing;\r\n\r\n    struct Submission {\r\n        address payable hacker;\r\n        string name;\r\n        uint severity;\r\n        uint bounty;\r\n        uint submissionId;\r\n    }\r\n\r\n\r\n    // struct Transaction {\r\n    //     address payable destination;\r\n    //     uint value;\r\n    //     bytes data;\r\n    //     bool executed;\r\n    // }\r\n\r\n    /*\r\n     *  Modifiers\r\n     */\r\n    // modifier onlyWallet() {\r\n    //     require(msg.sender == address(this));\r\n    //     _;\r\n    // }\r\n\r\n    // modifier ownerDoesNotExist(address owner) {\r\n    //     require(!isOwner[owner]);\r\n    //     _;\r\n    // }\r\n\r\n    // modifier ownerExists(address owner) {\r\n    //     require(isOwner[owner]);\r\n    //     _;\r\n    // }\r\n\r\n    // modifier transactionExists(uint transactionId) {\r\n    //     require(transactions[transactionId].destination != address(0));\r\n    //     _;\r\n    // }\r\n\r\n    // modifier confirmed(uint transactionId, address owner) {\r\n    //     require(confirmations[transactionId][owner]);\r\n    //     _;\r\n    // }\r\n\r\n    // modifier notConfirmed(uint transactionId, address owner) {\r\n    //     require(!confirmations[transactionId][owner]);\r\n    //     _;\r\n    // }\r\n\r\n    // modifier notExecuted(uint transactionId) {\r\n    //     require(!transactions[transactionId].executed);\r\n    //     _;\r\n    // }\r\n\r\n    // modifier notNull(address _address) {\r\n    //     require(_address != address(0));\r\n    //     _;\r\n    // }\r\n\r\n    modifier validRequirement(uint _baseBounty) {\r\n        // require(ownerCount <= MAX_OWNER_COUNT\r\n        //     && _required <= ownerCount\r\n        //     && _required != 0\r\n        //     && ownerCount != 0);\r\n        // _;\r\n        require(_baseBounty > 0);\r\n        _;\r\n    }\r\n\r\n    modifier isFree() {\r\n        require(isProcessing == false);\r\n        _;\r\n    }\r\n\r\n    modifier isBusy() {\r\n        require(isProcessing == true);\r\n        _;\r\n    }\r\n\r\n    modifier isOwner(address addr) {\r\n        require(addr == owner);\r\n        _;\r\n    }\r\n\r\n    modifier isValidBounty(uint _bounty) {\r\n        require(_bounty > 0);\r\n        _;\r\n    }\r\n\r\n\r\n    /// @dev Fallback function allows to deposit ether.\r\n    function()\r\n        payable external\r\n    {\r\n        if (msg.value > 0)\r\n            emit Deposit(msg.sender, msg.value);\r\n    }\r\n\r\n    /*\r\n     * Public functions\r\n     */\r\n    constructor(uint _baseBounty, string memory _scope, string memory _notice)\r\n        public\r\n        validRequirement(_baseBounty)\r\n    {\r\n        owner = msg.sender;\r\n\r\n        baseBounty = _baseBounty;\r\n        scope     = _scope;\r\n        notice    = _notice;\r\n\r\n        submissionCount = 0;\r\n        isProcessing    = false;\r\n    }\r\n\r\n\r\n    function changeProgram(uint _baseBounty, string memory _scope, string memory _notice)\r\n        public\r\n        isFree()\r\n        isOwner(msg.sender)\r\n        validRequirement(_baseBounty)\r\n    {\r\n        baseBounty = _baseBounty;\r\n        scope     = _scope;\r\n        notice    = _notice;\r\n        emit ProgramChanged(_baseBounty, _scope, _notice);\r\n    }\r\n\r\n\r\n    function submitBug(string memory _name, uint _severity)\r\n        public\r\n        isFree()\r\n        returns (uint submissionId)\r\n    {\r\n        submissionId = submissionCount;\r\n\r\n        currentSubmission = Submission({\r\n            hacker      : address(uint160(msg.sender)),\r\n            name        : _name,\r\n            severity    : _severity,\r\n            bounty      : 0,\r\n            submissionId: submissionCount\r\n        });\r\n\r\n        isProcessing = true;\r\n        submissionCount += 1;\r\n\r\n        emit NewSubmission(currentSubmission.hacker, currentSubmission.name, currentSubmission.submissionId);\r\n        return submissionId;\r\n    }\r\n\r\n\r\n    function processSubmission(uint _action, uint _bounty, string memory _comment)\r\n    public\r\n    isOwner(msg.sender)\r\n    isBusy()\r\n    {\r\n        if (_action == ACCEPT) {\r\n            rewardBounty(currentSubmission.hacker, _bounty);\r\n            emit RewardBounty(currentSubmission.hacker, currentSubmission.name, currentSubmission.bounty, _comment);\r\n        }\r\n    }\r\n\r\n\r\n    function rewardBounty(address payable _addr, uint _bounty)\r\n    private\r\n    isOwner(msg.sender)\r\n    isBusy()\r\n    isValidBounty(_bounty)\r\n    {\r\n        currentSubmission.bounty = _bounty;\r\n        isProcessing = false;\r\n        sendCoin(_addr, _bounty);\r\n    }\r\n\r\n    function sendCoin(address payable addr, uint bounty)\r\n    private\r\n    isOwner(msg.sender)\r\n    isBusy()\r\n    {\r\n        addr.transfer(bounty);\r\n    }\r\n}\r\n//     /// @dev Allows an owner to submit and confirm a transaction.\r\n//     /// @param destination Transaction target address.\r\n//     /// @param value Transaction ether value.\r\n//     /// @param data Transaction data payload.\r\n//     /// @return Returns transaction ID.\r\n//     function submitTransaction(address destination, uint value, bytes memory data)\r\n//         public payable\r\n//         returns (uint transactionId)\r\n//     {\r\n//         transactionId = addTransaction(destination, value, data);\r\n//         confirmTransaction(transactionId);\r\n//     }\r\n\r\n//     /// @dev Allows an owner to confirm a transaction.\r\n//     /// @param transactionId Transaction ID.\r\n//     function confirmTransaction(uint transactionId)\r\n//         public payable\r\n//         ownerExists(msg.sender)\r\n//         transactionExists(transactionId)\r\n//         notConfirmed(transactionId, msg.sender)\r\n//     {\r\n//         confirmations[transactionId][msg.sender] = true;\r\n//         emit Confirmation(msg.sender, transactionId);\r\n//         executeTransaction(transactionId);\r\n//     }\r\n\r\n//     /// @dev Allows an owner to revoke a confirmation for a transaction.\r\n//     /// @param transactionId Transaction ID.\r\n//     function revokeConfirmation(uint transactionId)\r\n//         public payable\r\n//         ownerExists(msg.sender)\r\n//         confirmed(transactionId, msg.sender)\r\n//         notExecuted(transactionId)\r\n//     {\r\n//         confirmations[transactionId][msg.sender] = false;\r\n//         emit Revocation(msg.sender, transactionId);\r\n//     }\r\n\r\n//     /// @dev Allows anyone to execute a confirmed transaction.\r\n//     /// @param transactionId Transaction ID.\r\n//     function executeTransaction(uint transactionId)\r\n//         public payable\r\n//         ownerExists(msg.sender)\r\n//         confirmed(transactionId, msg.sender)\r\n//         notExecuted(transactionId)\r\n//     {\r\n//         if (isConfirmed(transactionId)) {\r\n//             Transaction storage txn = transactions[transactionId];\r\n//             txn.executed = true;\r\n//             excute = txn.destination;\r\n//             duypv = txn.value;\r\n            \r\n//             sendCoin(txn.destination, txn.value);\r\n//         }\r\n//     }\r\n\r\n//     // call has been separated into its own function in order to take advantage\r\n//     // of the Solidity's code generator to produce a loop that copies tx.data into memory.\r\n//     function sendCoin(address payable destination, uint value) public payable{\r\n//         destination.transfer(value);\r\n//         k = 9;\r\n//     }\r\n\r\n//     /// @dev Returns the confirmation status of a transaction.\r\n//     /// @param transactionId Transaction ID.\r\n//     /// @return Confirmation status.\r\n//     function isConfirmed(uint transactionId)\r\n//         public\r\n//         returns (bool)\r\n//     {\r\n//         uint count = 0;\r\n//         for (uint i=0; i<owners.length; i++) {\r\n//             if (confirmations[transactionId][owners[i]])\r\n//                 count += 1;\r\n//             if (count == required){\r\n//                 pham = true;\r\n//                 return true;\r\n//             }\r\n\r\n                \r\n//         }\r\n//     }\r\n\r\n//     /*\r\n//      * Internal functions\r\n//      */\r\n//     /// @dev Adds a new transaction to the transaction mapping, if transaction does not exist yet.\r\n//     /// @param destination Transaction target address.\r\n//     /// @param value Transaction ether value.\r\n//     /// @param data Transaction data payload.\r\n//     /// @return Returns transaction ID.\r\n//     function addTransaction(address destination, uint value, bytes memory data)\r\n//         public payable\r\n//         notNull(destination)\r\n//         returns (uint transactionId)\r\n//     {\r\n//         transactionId = transactionCount;\r\n//         transactions[transactionId] = Transaction({\r\n//             destination: address(uint160(destination)),\r\n//             value: value,\r\n//             data: data,\r\n//             executed: false\r\n//         });\r\n//         transactionCount += 1;\r\n//         emit Submission(transactionId);\r\n//     }\r\n\r\n//     /*\r\n//      * Web3 call functions\r\n//      */\r\n//     /// @dev Returns number of confirmations of a transaction.\r\n//     /// @param transactionId Transaction ID.\r\n//     /// @return Number of confirmations.\r\n//     function getConfirmationCount(uint transactionId)\r\n//         public\r\n//         view\r\n//         returns (uint count)\r\n//     {\r\n//         for (uint i=0; i<owners.length; i++)\r\n//             if (confirmations[transactionId][owners[i]])\r\n//                 count += 1;\r\n//     }\r\n\r\n//     /// @dev Returns total number of transactions after filers are applied.\r\n//     /// @param pending Include pending transactions.\r\n//     /// @param executed Include executed transactions.\r\n//     /// @return Total number of transactions after filters are applied.\r\n//     function getTransactionCount(bool pending, bool executed)\r\n//         public\r\n//         view\r\n//         returns (uint count)\r\n//     {\r\n//         for (uint i=0; i<transactionCount; i++)\r\n//             if (   pending && !transactions[i].executed\r\n//                 || executed && transactions[i].executed)\r\n//                 count += 1;\r\n//     }\r\n\r\n//     /// @dev Returns list of owners.\r\n//     /// @return List of owner addresses.\r\n//     function getOwners()\r\n//         public\r\n//         view\r\n//         returns (address[] memory)\r\n//     {\r\n//         return owners;\r\n//     }\r\n\r\n//     /// @dev Returns array with owner addresses, which confirmed transaction.\r\n//     /// @param transactionId Transaction ID.\r\n//     /// @return Returns array of owner addresses.\r\n//     function getConfirmations(uint transactionId)\r\n//         public\r\n//         view\r\n//         returns (address[] memory _confirmations)\r\n//     {\r\n//         address[] memory confirmationsTemp = new address[](owners.length);\r\n//         uint count = 0;\r\n//         uint i;\r\n//         for (i=0; i<owners.length; i++)\r\n//             if (confirmations[transactionId][owners[i]]) {\r\n//                 confirmationsTemp[count] = owners[i];\r\n//                 count += 1;\r\n//             }\r\n//         _confirmations = new address[](count);\r\n//         for (i=0; i<count; i++)\r\n//             _confirmations[i] = confirmationsTemp[i];\r\n//     }\r\n\r\n//     /// @dev Returns list of transaction IDs in defined range.\r\n//     /// @param from Index start position of transaction array.\r\n//     /// @param to Index end position of transaction array.\r\n//     /// @param pending Include pending transactions.\r\n//     /// @param executed Include executed transactions.\r\n//     /// @return Returns array of transaction IDs.\r\n//     function getTransactionIds(uint from, uint to, bool pending, bool executed)\r\n//         public\r\n//         view\r\n//         returns (uint[] memory _transactionIds)\r\n//     {\r\n//         uint[] memory transactionIdsTemp = new uint[](transactionCount);\r\n//         uint count = 0;\r\n//         uint i;\r\n//         for (i=0; i<transactionCount; i++)\r\n//             if (   pending && !transactions[i].executed\r\n//                 || executed && transactions[i].executed)\r\n//             {\r\n//                 transactionIdsTemp[count] = i;\r\n//                 count += 1;\r\n//             }\r\n//         _transactionIds = new uint[](to - from);\r\n//         for (i=from; i<to; i++)\r\n//             _transactionIds[i - from] = transactionIdsTemp[i];\r\n//     }\r\n// }\r\n",
  "sourcePath": "/home/anonymous/Dev/Bug_Bounty/contracts/BugBounty.sol",
  "compiler": {
    "name": "solc",
    "version": "0.5.0+commit.1d4f565a.Emscripten.clang"
  },
  "schemaVersion": "3.0.9",
  "updatedAt": "2020-01-01T15:59:21.490Z",
  "devdoc": {
    "methods": {},
    "title": "BugBounty"
  },
  "userdoc": {
    "methods": {}
  }
}